:020000040800F2
:10000000900700204902000875260008F523000823
:1000100071260008650D0008992600080000000000
:100020000000000000000000000000007D26000825
:10003000B10E0008000000007926000881260008A3
:1000400063020008630200086302000863020008FC
:1000500063020008630200086302000863020008EC
:1000600063020008630200086302000863020008DC
:1000700063020008630200086302000863020008CC
:1000800063020008630200086302000863020008BC
:1000900063020008630200086302000863020008AC
:1000A000630200086302000863020008630200089C
:1000B000630200086302000863020008630200088C
:1000C000630200086302000863020008630200087C
:1000D000630200086302000863020008630200086C
:1000E000630200086302000863020008630200085C
:1000F000630200086302000863020008630200084C
:10010000630200086302000863020008630200083B
:10011000630200086302000863020008630200082B
:10012000630200086302000863020008630200081B
:10013000630200086302000863020008630200080B
:1001400063020008630200086302000863020008FB
:1001500063020008630200086302000863020008EB
:1001600063020008630200086302000863020008DB
:100170006302000863020008630200080000000038
:10018000630200086302000800F002F800F04CF877
:100190000AA090E8000C82448344AAF10107DA45E2
:1001A00001D100F041F8AFF2090EBAE80F0013F0E8
:1001B000010F18BFFB1A43F001031847F444000075
:1001C00014450000103A24BF78C878C1FAD8520705
:1001D00024BF30C830C144BF04680C6070470000C1
:1001E0000023002400250026103A28BF78C1FBD840
:1001F000520728BF30C148BF0B607047662904F022
:100200009881642900F00C81002070471FB504F02C
:100210007EF900F02FFC04000020002103F070FCA8
:10022000E0601FBD10B510BD00F028FD1146FFF7BE
:10023000EDFF02F039FB00F046FD03B4FFF7F2FFDB
:1002400003BC00F087FD00000948804709480047CB
:10025000FEE7FEE7FEE7FEE7FEE7FEE7FEE7FEE776
:10026000FEE7FEE704480549054A064B70470000D3
:1002700085260008890100089001002090070020D1
:10028000900300209003002053EA020C00F06980E4
:100290002DE9F04B4FF00006002B1FBFB3FA83F59A
:1002A00003FA05F424FA05F65E4012BF1643B2FACB
:1002B00082F502FA05F4C5F120051EBF22FA05FCFD
:1002C00044EA0C04203556EA044C4FEA144418BFA3
:1002D000641C4FF000084FF00009904271EB030CD2
:1002E00039D3002919BFB1FA81F701FA07F6B0FA3C
:1002F00080F700FA07F6C7F120071EBF20FA07FCB7
:1003000046EA0C062037B6FBF4FCA7EB0507103FC6
:1003100007F01F0BCBF120062CFA06F60CFA0BFBAC
:1003200044BFB3460026202FA4BF5E464FF0000B0B
:100330005BEA060C08BF4FF0010B19EB0B0948EB09
:100340000608ABFB027C06FB02CC0BFB03CCC01BFC
:1003500071EB0C01C1E70B46024641464846BDE839
:10036000F08B13B5084318BF4FF0FF300146AFF3D1
:100370000080BDE81C4070470FB41CB50C0007AAF4
:10038000009007D04142A14202D32044401E01E028
:100390004FF0FF30074B7B4469460190069800F010
:1003A0004EFB0020002C01D0009908701CBC5DF8A9
:1003B00014FB0000CB0600002DE9F0410E46044678
:1003C000002020622046E168884730B3252805D008
:1003D000D4E901219047206A401CF2E7E1682046F9
:1003E00000278847050018D0A5F14100192802D838
:1003F00020354FF400673246294620462760FFF734
:10040000FDFE40B1012804D0F61D26F0070608368F
:10041000D8E7361DD6E72846DAE7206ABDE8F0813E
:100420002DE9F0410646002410687529314616A5CD
:1004300010D0AFF30080002802DA404213A507E095
:1004400031688A0701D512A502E0490704D511A534
:10045000012401E0AFF3008000210A2206F1240705
:1004600009E0B0FBF2FCB0FBF2F302FB1C00303001
:1004700078541846491C0028F3D123462A463046B2
:10048000BDE8F04100F06FB8000000002D00000052
:100490002B0000002000000010B5203AC0F00B80B7
:1004A000B1E81850A0E81850B1E81850A0E818506A
:1004B000203ABFF4F5AF5FEA027C24BFB1E81850E0
:1004C000A0E8185044BF18C918C0BDE810405FEA42
:1004D000827C24BF51F8043B40F8043B08BF7047BE
:1004E000D20728BF31F8023B48BF11F8012B28BFC3
:1004F00020F8023B48BF00F8012B70474FF0000284
:1005000000B5134694469646203922BFA0E80C5009
:10051000A0E80C50B1F12001BFF4F7AF090728BFE4
:10052000A0E80C5048BF0CC05DF804EB890028BF60
:1005300040F8042B08BF704748BF20F8022B11F089
:10054000804F18BF00F8012B704770477047704705
:1005500010B500F093FA006810BD10B5044600F025
:100560008DFA046010BD2DE9F0470D46994692467C
:10057000044600F124080168880604D5E06921F0EA
:100580001001216000E00120A84201DD471B00E0CE
:100590000027A1697A1902EB0900081AA0612078E6
:1005A000C00602D42046AFF30080002608E0D4E95C
:1005B00001211AF806009047206A401C761C206230
:1005C0004E45F4DB2078C0060AD52046AFF3008004
:1005D00006E0D4E9012130209047206A401C2062C7
:1005E000381EA7F10107F4DC07E0D4E9012118F86F
:1005F00005009047206A401C2062281EA5F10105D5
:10060000F3DC2046AFF300802078000602D50220FC
:10061000BDE8F0870120FBE72DE9FF4F0C461E46A1
:100620004FF0FF378BB0D2E90001DDF860800A900F
:100630008A46C1F30A5505B93D46002108464FF0E8
:100640000000BAF1000F00F4400005DA00EB800072
:100650004FF4400101EA50004FEA9059B9F1010FFF
:1006600000DDB9460A9850EA4A000ED044F6105010
:10067000A5F2FF3545432F14B8F1000F1ED0754287
:10068000291E1EDDC9F100021CE0B8F1010F4FF078
:10069000000001D0302103E0F24305E02154401C6A
:1006A000B042FBDB30460022002121540B99C1F8F7
:1006B0000880C1E900200FB0BDE8F08FBD1B6D1CA4
:1006C000DEE74A4600DA694206A800F061FA06ABA6
:1006D00093E8070003AB83E8070050460A9902F04D
:1006E0000FFB8DE80700A0F500501F38009003981D
:1006F000002D0ADD42F21F014A460844002303A9E7
:100700000390684602F078FD09E0A0F500504A46E3
:100710001F38002303A90390684602F082FD8DE88C
:1007200007000004000C03D04FF0FF30410800E048
:100730001046B8F1000F03D00022009215461EE0CB
:10074000751E05D400F09EF9303262556D1EF9D544
:10075000B3460122084302D000227F1C04E0207827
:10076000302801D100227F1E002A099784D01DE085
:10077000112D07DA00F086F9303262556D1C50EA0F
:100780000102F5D1084302D00098C8B10EE0002163
:10079000681E05E0235C625C63542254401E491CC1
:1007A0008142F7DBAB46A81B401E0990002004F8ED
:1007B0000B000B98099AC0F80880C0E9002B7AE773
:1007C00011264FF0000857E72DE9F04F8846044600
:1007D000D21D22F0070191B0D1E90001CDE90A0153
:1007E00002F056FE02460B98C00F01D02D2007E004
:1007F0002068810701D52B2002E0202101EAC000FA
:10080000032A099001D0072A05DB0346414620460A
:1008100000F07EF90BE12078800601D5E06900E068
:100820000620B8F1650F814606D0B8F1660F18D0E2
:10083000B8F1670F70D131E00020B9F1110F0090CD
:1008400001DB112301E009F101030AAA01A90CA8A7
:10085000FFF7E2FEDDE90C70002609F10105834691
:1008600047E001204B4600904FF000470AAA01A93B
:100870000CA8FFF7D1FEDDE90DB00C995D4600260E
:1008800010B909F101000D18B9EB050003D4C0F14E
:10089000FF3609F10105A5EB09002BE0B9F1010FC5
:1008A00001DA4FF001090020B9F1110F009048461C
:1008B00001DD112300E003460AAA01A90CA8FFF7F5
:1008C000ABFEDDE90C704D4600268346207800071C
:1008D0000AD4AB4500DA5D4601A8012D04DD4119BB
:1008E00011F8011C302907D04F4502DA17F1040F27
:1008F00004DA012082460FE06D1EEEE7002F02DCD5
:10090000ED1B3E4403E0781CA84200DD7D1CB81BB3
:1009100000F1010A4FF000472078000703D4AA45F0
:1009200001DB4FF0FF3A0021B7F1004F0DF1430812
:100930008DF8431024D002202B23002F01DA7F42B0
:100940002D230A21021EA0F1010000DC5FB197FBFC
:10095000F1FC97FBF1F201FB1C7C17460CF1300C0B
:1009600008F801CDEEE7A8F1010003702188090520
:1009700001D5452100E06521A0F1010800F8011C26
:1009800009980FA9A1EB0807FF1D00B1012041192B
:1009900001EBEA70A1693844081A401EA061207872
:1009A000C00602D42046AFF30080099828B1D4E9EC
:1009B00001219047206A401C20622078C00622D581
:1009C0002046AFF300801EE0002E04DBB34502DDBD
:1009D00001A8805D00E03020D4E901219047206A21
:1009E000401C2062761CAAF101005FEA000A0AD1CD
:1009F00000F040F8C0680168405CD4E901219047EC
:100A0000206A401C2062281EA5F10105DCDC07E0FD
:100A1000D4E9012118F8010B9047206A401C20629C
:100A2000381EA7F10107F3DC2046AFF30080032056
:100A300011B041E601694A1C02610878704700B5AF
:100A40008FB0CDE901310021059105497944CDE907
:100A5000031011466846FFF7AFFC0FB000BD000061
:100A6000E5FFFFFFD1E900239A4202D2531C0B603D
:100A700010707047004870473000002000487047F1
:100A80001000002030B5B0F10A0271F100034FEA06
:100A9000900E4EEA817EB0EB0E0061EB91014FEAC1
:100AA000101E4EEA017E10EB0E0041EB11114FEAD1
:100AB000102E4EEA016E10EB0E0041EB11214FEAB1
:100AC000104E4EEA014E10EB0E0041EB1141401862
:100AD00041F100014FEAD00040EA41704FEAD101F4
:100AE0004FEA810444EA907410EB800544EB010462
:100AF0006D1944EB0404521BA3414FF0000348BF9F
:100B00000A3200D530BD401C41F1000130BD00006B
:100B10002DE9F0411F46044603260168072A01F427
:100B2000006004DB08B116A505E016A503E008B1D6
:100B300015A500E015A521F010002060A069C01ED9
:100B4000A0610FB1401EA0612046AFF300804FB1FD
:100B5000D4E9012138469047206A401C2062C01C1D
:100B6000206206E0206AFAE7D4E9012115F8010BBA
:100B70009047761EF8D22046AFF30080BDE8F081A2
:100B80004E414E006E616E00494E4600696E660031
:100B90002DE9F047814616468AB0354878440DC89D
:100BA0008DE80D0032487844801C03AC0DC884E801
:100BB0000D0041F69B300844372190FBF1F290FB89
:100BC000F1F5A5F1800501FB12041B3C02D564423E
:100BD000012000E00020DFF898A080460027FA44BA
:100BE000AAF1BE0A0EE0E0070AD03246684607EBDB
:100BF000470101230AEB810102F013FB8DE8070096
:100C000064107F1C002CEED1194F7F44AE3F19E0D9
:100C1000E80715D007EB04100DF1180A90E80E0054
:100C20008AE80E00C068F04201D198190890324657
:100C3000012306A903A802F0F4FA03AB83E8070036
:100C40006D10641C002DE3D14FF00103324669465C
:100C5000B8F1000F03A802D002F0CEFA01E002F0D2
:100C6000E0FAC9E90001C9F808200AB0BDE8F08738
:100C7000B43A000000487047100000207546FFF7A6
:100C8000F9FFAE4605006946534620F00700854649
:100C900018B020B5FFF7E6FABDE820404FF0000697
:100CA0004FF000074FF000084FF0000BAC46ACE8E7
:100CB000C009ACE8C009ACE8C009ACE8C00921F043
:100CC00007018D46704710B50446AFF300802046FB
:100CD000BDE81040FFF7B1BA30B44FF0013C50F816
:100CE000042B51F8043BCCFA52F4D51A20D1FCB9AC
:100CF00050F8042B51F8043BCCFA52F4D51A17D112
:100D0000B4B950F8042B51F8043BCCFA52F4D51A7C
:100D10000ED16CB950F8042B51F8043BCCFA52F4C4
:100D2000D51A05D1002CDAD030BC4FF00000704746
:100D300029BAB1FA81F111F01801D1F120008440F3
:100D4000F2D1CA40CB4012F0FF0213F0FF0330BCD7
:100D5000D01A704701491820ABBEFEE726000200FA
:100D600070470000FEE70000B0B582B040F23414D6
:100D7000C2F20004022120688DF807104FF47A7542
:100D80000DF10702D0210123009500F04FFD2068EE
:100D90000DF10602D0210123009500F045FA9DF8DF
:100DA0000600C0F3011141EA810100F00F0000EBE1
:100DB000410002B0B0BD0000B0B582B040F23414C2
:100DC000C2F20004012120688DF807104FF47A75F3
:100DD0000DF10702D0210123009500F027FD2068C6
:100DE0000DF10602D0210123009500F01DFA9DF8B7
:100DF0000600010901EB810100F00F0000EB41004A
:100E0000C0B202B0B0BD0000B0B582B040F2341440
:100E1000C2F20004002120688DF807104FF47A75A3
:100E20000DF10702D0210123009500F0FFFC20689E
:100E30000DF10602D0210123009500F0F5F99DF88F
:100E40000600C0F3021101EB810100F00F0000EB7E
:100E5000410002B0B0BD000070B582B040F2341560
:100E6000C2F2000500264FF47A740DF10502D0217C
:100E7000012328608DF80560009400F0D7FC2868F5
:100E800001AAD0210123009400F0CEF99DF80400BE
:100E90000DF1060200F07F0128688DF80710D021BF
:100EA00002238DF80660009400F0C0FC02B070BD13
:100EB00070470000B0B5044600F0F4F8054640F273
:100EC0000000C2F200000078611C18BF044400BF9B
:100ED00000F0E8F8401BA042FAD3B0BD2DE9F04F76
:100EE00082B000F13E4241F6004502F1FF77C4F2C4
:100EF000020508224FEAB726A84208BF0722072E9C
:100F000038BF4FEAB7224FF0010A002400274FF004
:100F10000008009208E000BF023708F10108202F06
:100F200004F1040400F0B4800E680AFA08F916EA25
:100F3000090FF1D0D1F804A00AF0030BABF10106C0
:100F4000012E17D80322866802FA07FECA6826EA2D
:100F50000E06BA40324382604268CAF3001522EAA4
:100F6000090205FA08F54FEA480C6FEA0E062A4313
:100F700042600BE00322BA40D643BBF1030FBC46EC
:100F800004D1BC464FF0030B22E000BFC2688D685D
:100F9000324005FA0CF52A43BBF1020FC26017D1AB
:100FA0006FF0030202EA5802024404F01C030F250A
:100FB000D2F820E005FA03FA0D692EEA0A0E05FAC6
:100FC00003F343EA0E031362D1F804A00AF0030B03
:100FD00002680BFA0CF332401A431AF4403F4FF008
:100FE000010A026098D0002243F644030192C4F241
:100FF00002031A6843F6004E42F480421A601A68EF
:10100000C4F2010E02F480420192019A28F0030218
:101010004FF6084C7244CFF6FF7C52F80C3004F0C7
:101020000C060F25B540AB43009D05FA06F6334389
:1010300042F80C30DEF808204B6842EA090643F615
:101040000C4CDD0258BF22EA0906CEF80860C4F253
:10105000010CDCF800209D0242EA090658BF22EA92
:101060000906CCF80060DEF804209D0342EA090678
:1010700058BF22EA0906CEF80460DEF80020DB0340
:1010800042EA090658BF22EA0906CEF8006043E7A3
:1010900002B0BDE8F08F0000002A08BF090481619A
:1010A0007047000040F28C10C2F2000000687047E8
:1010B00070B5B8B3044690F83D0028B9002084F814
:1010C0003C00204600F0EEFD242084F83D0020681E
:1010D000016821F001010160016841F400410160F3
:1010E000016821F40041016000F068FF48F280418E
:1010F000C0F21E0140F60013D4F804E088424FF01D
:101100000001C0F23D0348F2A16C4FF0000238BF6D
:1011100001219842C0F2010C38BF0122E64538BFD8
:101120000A460AB1012070BD4DF68361C4F21B313D
:10113000A0FB01122168950C4B684FF4967623F0C2
:101140003F0343EA9243754344F6D3564B60C1F2E2
:1011500062060B6AA5FB0656B50923F03F03E64578
:1011600038BF950C6A1C1A430A62CA6948F2A06625
:101170004CF6FF73C0F20106B64522EA03020BD813
:1011800001384FEA4E03B0FBF3F001306FF31F302C
:10119000042898BF04201EE0A368013863B1192316
:1011A0000EFB03F3B0FBF3F001306FF31F3078B1A7
:1011B00000F5804008E000BF0EEB4E03B0FBF3F0FB
:1011C00001306FF31F3028B100F5004003E000BF8D
:1011D000012000E001201043C8610868D4E907231A
:1011E00020F0C000104318430860886848F2FF32BE
:1011F00004F10C0690434CCE18431043A569886057
:10120000C86820F0FF0030432843C860086840F0F9
:101210000100086000202021206484F83D10206334
:1012200084F83E0070BD00002DE9F04182B01F46F9
:10123000164688460446FFF735FF94F83D102029EE
:101240001CD1054620688169890713D5FFF72AFF5D
:10125000401B1928F6D900202021206384F83D1076
:1012600084F83E00216C41F02001216484F83C00A8
:1012700004E000BF94F83C10012903D1022002B021
:10128000BDE8F081012184F83C100168C90703D151
:10129000016841F001010160016821F40061016011
:1012A000222184F83D10102184F83E100021216491
:1012B00066626785618D21850021CFF6FF71E1624D
:1012C000E16A026811F5803F42F48062026018BF53
:1012D000012919D1016841F4807101604169089EBA
:1012E000C90724D1711C18D0002E00F0CB8000BF9C
:1012F000FFF7D8FE401BB04200F2C680206841696B
:10130000C907F5D013E000BF0829E3D0216B1129EC
:10131000E0D0E3E74169C90709D14169C90706D1AE
:101320004169C90704BF41695FEAC171F2D021690F
:10133000B1F5804F08D148F00101C9B2016141699E
:10134000890740F1CC8003E1062101EAD81707F1B3
:10135000F00101614169090738D44169721C01F447
:10136000806113D0002940F0EA80002E00F0108246
:10137000FFF798FE401BB04200F20C8220684169E2
:10138000090723D441694905F2D5D8E0002940F086
:10139000D6804169090719D44169490500F1CF8018
:1013A0004169090712D44169490500F1C8804169C2
:1013B00009070BD44169490500F1C180416909075A
:1013C00004D441694905E4D5B9E000BF5FFA88F16A
:1013D00001614169890739D44169721C01F4806156
:1013E00014D0002940F0AB80002E00F0D181FFF72F
:1013F00059FE401BB04200F2CD8120684169890747
:1014000024D441694905F2D599E000BF002940F094
:1014100096804169890719D44169490500F18F8097
:101420004169890712D44169490500F18880416901
:1014300089070BD44169490500F181804169890719
:1014400004D441694905E4D579E000BF0021019148
:1014500041690191816901910199016841F48071AB
:1014600001604169C90734D1711C28D056B1FFF71A
:1014700019FE401BB04207D820684169C907F6D061
:1014800027E000BFFFF70EFE00202021206384F834
:101490003D1084F83E00216C41F020012164216858
:1014A00084F83C000868C00544BF4FF40070206415
:1014B000012002B0BDE8F0814169C90709D1416945
:1014C000C90706D14169C90704BF41695FEAC17113
:1014D000F2D047F0F10101614169890738D44169CF
:1014E000721C01F4806111D049BB002E00F05081C4
:1014F000FFF7D8FD401BB04200F24C8120684169E3
:10150000890725D441694905F2D518E0B9B941697F
:1015100089071DD44169490511D44169890717D448
:10152000416949050BD44169890711D441694905CD
:1015300005D4416989070BD441694905E7D501689C
:1015400041F4007101606FF480614161042022E187
:10155000218D99B1022927D001292DD1026822F4C9
:1015600080620260002201924269019282690192C6
:10157000019A026842F40072026028E000210191A1
:1015800041690191816901910199016841F40071FA
:101590000160202084F83D00002084F83E0084F89B
:1015A0003C0002B0BDE8F081026822F48062026073
:1015B000026842F4006202E0026842F48062026063
:1015C000002201924269019280690190019888B2DB
:1015D000032817D802283FD0012851D1002E00F04F
:1015E00099802068014651F8142F520600F1968028
:1015F0000868C00600F1F280FFF754FD401BB042BE
:10160000EFD9E0E086B100BF2068014651F8142F01
:1016100052060ED40868C00600F1E080FFF742FDD4
:10162000401BB042F0D9CEE020684169490640F144
:10163000C3800069616A0870606A218D01300139D8
:10164000606221852268638D013B638553695B0776
:1016500070D51169017064E020684169490745D47B
:10166000711C6BD0002E00F0CD80FFF71BFD401BDE
:10167000B04200F2C980206841694907F5D535E0DC
:101680002068416949070ED4711C65D0002E00F016
:10169000B980FFF707FD401BB04200F2B58020681B
:1016A00041694907F5D5016821F48061016000694D
:1016B000616A0870606A218D01300139606221859C
:1016C0002068618D01396185416949070ED4711C1B
:1016D00050D0002E00F09680FFF7E4FC401BB04293
:1016E00000F29280206841694907F5D5016841F40C
:1016F000007101600069616A0870606A2268411CBB
:101700006162218D01392185618D01396185116900
:10171000417006E02068416949064DD50069616A5B
:101720000870606A218D0130013960622185608D09
:101730000138608508047FF44AAF2AE74169490708
:10174000D4D4416949075CBF41695FEA4171CDD496
:1017500041694907F2D5C9E741694907A3D44169FD
:1017600049075CBF41695FEA41719CD441694907FF
:10177000F2D598E741694907B8D4416949075CBF88
:1017800041695FEA4171B1D441694907F2D5ADE7DA
:10179000FFF788FC202000212022216384F83D20CF
:1017A00084F83E10226C1043206484F83C10012021
:1017B00002B0BDE8F08100BF50F8141FC906014611
:1017C0000CD4FFF76FFC00202021206384F83D102B
:1017D00084F83E00206C40F020000AE06FF010001A
:1017E000086000202021206384F83D1084F83E002A
:1017F000206C2064002084F83C00012002B0BDE889
:10180000F08100BFFFF74EFC00202021206384F808
:101810003D1084F83E00216C41F02001216484F8E1
:101820003C00012002B0BDE8F08100002DE9F0434A
:1018300081B01F46164688460446FFF733FC94F8ED
:101840003D10202920D1054620688169890717D5D8
:10185000FFF728FC401B1928F6D90020202120631F
:1018600084F83D1084F83E00216C022641F02001EE
:10187000216484F83C00304601B0BDE8F08300BF2D
:1018800094F83C10012905D10226304601B0BDE88C
:10189000F08300BF012184F83C100168C90703D11F
:1018A000016841F001010160016821F400610160FB
:1018B000212184F83D10102184F83E10002121647C
:1018C00066626785618D21850021CFF6FF71E16237
:1018D000E16A11F5803F18BF012919D1016841F46F
:1018E000807101604169DDF82090C90723D119F1A9
:1018F000010116D0B9F1000F46D000BFFFF7D2FBAF
:10190000401B484542D820684169C907F6D012E01B
:101910000829E3D0216B1229E0D0E3E74169C90728
:1019200009D14169C90706D14169C90704BF4169A5
:101930005FEAC171F2D02169B1F5804F02D1FE2179
:1019400061E000BF062101EAD811F031016141696F
:10195000090757D4416919F1010201F480612FD0C0
:10196000002946D1B9F1000F00F04281FFF79AFB40
:10197000401B484500F23E8120684169090741D477
:1019800041694905F2D534E0FFF78CFB00202021A6
:10199000206384F83D1084F83E00216C012641F05C
:1019A00020012164216884F83C000868C00544BF18
:1019B0004FF400702064304601B0BDE8F08300BFF2
:1019C000B9B9416909071DD44169490511D4416973
:1019D000090717D4416949050BD44169090711D496
:1019E0004169490505D4416909070BD44169490595
:1019F000E7D5016841F4007101606FF480614161D5
:101A00000420F8E0FF2101EA08010161416989072A
:101A10003AD4416919F1010201F4806112D051BB3D
:101A2000B9F1000F00F0E080FFF73CFB401B484598
:101A300000F2DC8020684169890725D441694905A5
:101A4000F2D518E0B9B9416989071DD44169490542
:101A500011D44169890717D4416949050BD44169FB
:101A6000890711D44169490505D4416989070BD417
:101A700041694905E7D5016841F4007101606FF4DF
:101A8000806141610420B6E0002600964169009122
:101A9000816900910099218D002900F0958009F15C
:101AA0000108014651F8142F120635D4B8F1000F81
:101AB00016D0B9F1000F00F0AF8000BF08684005F4
:101AC00000F1B280FFF7EEFA401B484500F2A98012
:101AD0002068014651F8142F1206EFD51CE000BF14
:101AE0000A68520500F1A0800A68120614D40A6838
:101AF000520500F199800A6812060DD40A68520551
:101B000000F192800A68120606D40A68520500F1B4
:101B10008B800A681206E3D5636A194611F8012B17
:101B200002616162618D01396185278D0146A7F1EE
:101B3000010CA4F828C051F8142F52070DD55FEA04
:101B40000C420AD05A78A7F1020C02619A1C626218
:101B5000628D013A6285A4F828C00A6852072FD422
:101B6000B8F1000F14D0B9F1000F7BD00868400520
:101B700000F18080FFF796FA401B484577D820682F
:101B8000014651F8142F5207F0D5B4F828C017E0D9
:101B90000A6852056ED40A68520711D40A685205C1
:101BA00068D40A6852070BD40A68520562D40A68DE
:101BB000520705D40A6852055CD40A685207E7D573
:101BC0005FEA0C417FF46DAF016841F40071016080
:101BD000202084F83D0084F83E6084F83C60304664
:101BE00001B0BDE8F08300BFFFF75CFA202002E0FF
:101BF000FFF758FA202000212022216384F83D209D
:101C000084F83E10226C01261043206484F83C10B6
:101C1000304601B0BDE8F0830868400504D4FFF702
:101C200041FA202004E000BF6FF4806008600420C7
:101C300000212022216384F83D2084F83E10226C8C
:101C40001043206484F83C10206C042825D12068BF
:101C50000126016841F400710160304601B0BDE821
:101C6000F08300BF0868400504D4FFF71BFA20206A
:101C700004E000BF6FF4806008600420002120228F
:101C8000216384F83D2084F83E10226C10432064C8
:101C900084F83C10206C0428D9D00126304601B0CD
:101CA000BDE8F083B0B586B0016845F20040C4F2EB
:101CB0000000814202D006B0B0BD00BF002443F650
:101CC00030050194C4F20205296800F5D83041F0CE
:101CD00002012960296801F0020101910199C021E6
:101CE00001911221CDE902140321049104210591EF
:101CF00001A9FFF7F3F80094286940F40010286167
:101D0000286900F400100090009806B0B0BD0000F3
:101D100040F2000040F28C11C2F20000C2F2000159
:101D200000780A68104408607047000080B543F6E8
:101D30000040C4F20200016841F4007101600168D2
:101D400041F480610160016841F480710160032009
:101D500000F074F80F2000F005F800F027F80020DC
:101D600080BD000070B540F20006C2F2000640F2ED
:101D700008013278C2F200014FF47A730968B3FBAC
:101D8000F2F20446B1FBF2F1084600F01DFB0F2C05
:101D90004FF0010508D838B94FF0FF302146002236
:101DA000002500F01FF87460284670BD82B0002046
:101DB00043F640010190C4F202014A6842F48042B5
:101DC0004A604A6802F480420192019A00900868D1
:101DD00040F080500860086800F080500090009843
:101DE00002B0704710B54EF60C5CCEF2000CDCF879
:101DF0000030C3F3022E8EF00704042C28BF042405
:101E0000BEF103034FF0FF3E0EFA04F438BF002387
:101E1000A14399400EFA03F39A43114300F00F02D5
:101E2000043A624409010C3200F16043B0F1FF3F13
:101E3000C8BF03F56442117010BD00004EF60C518E
:101E4000CEF200010A684FF6FF031A4060F30A223F
:101E500042F0806040F0FD70086070472DE9F0416D
:101E6000002800F08B8043F60808C4F202080446FC
:101E7000D8F8F8030D4600F00700884207D288F82A
:101E8000F853D8F8F80300F00700A84276D120688C
:101E9000810717D5410705D5D8F8001041F4E05166
:101EA000C8F80010010705D5D8F8001041F46041CA
:101EB000C8F80010D8F80010A26821F0F001114312
:101EC000C8F80010C0073FD1D8F8F80300F00700A9
:101ED000A84207D988F8F853D8F8F80300F00700AB
:101EE000A8424BD12068410707D5D8F80010E26816
:101EF00021F4E0511143C8F80010000708D5D8F8C4
:101F00000000216920F4604040EAC100C8F80000E8
:101F100000F068F8D8F8001044F26C62C1F30311C5
:101F2000C0F60002515C40F2080220FA01F140F2D2
:101F30000400C2F200000068C2F200021160FFF764
:101F400011FF0020BDE8F0816068811E022907D2E0
:101F500058F8081C89015CBF0120BDE8F08111E040
:101F6000012807D158F8081C89035CBF0120BDE88F
:101F7000F08107E058F8081C890703D40120BDE868
:101F8000F08100BFD8F8001021F003010843C8F821
:101F90000000FFF787F8064641F28837D8F80000BE
:101FA000616800F00C00B0EB810F8DD0FFF77AF87C
:101FB000801BB842F2D90320BDE8F08140F208004E
:101FC00043F60801C2F20000C4F202010068096889
:101FD00044F27C62C1F38221C0F60002515CC84029
:101FE0007047000010B543F60404C4F202046068B0
:101FF00000F00C0008280BD0042819BF42F2004062
:10200000C0F2F40047F64000C0F27D1010BD00BFE2
:10201000206821682368490247F64001C0F27D111B
:1020200000F03F02C3F388105CBF42F20041C0F2EF
:10203000F401A1FB00010023FEF726F9216802222A
:10204000C1F3014102EB4101B0FBF1F010BD000012
:102050002DE9F04182B000286AD00446007843F6AA
:102060000006C007C4F202060BD0B06800F00C00F6
:10207000042840F0A1803068800302D56068002801
:1020800056D0207880071AD5B06810F00C0F09D010
:10209000B06800F00C00082840F0A880706840028A
:1020A00000F1A4803068800702D5E06801283FD1A4
:1020B0003068216920F0F80040EAC10030602078E3
:1020C000000739D4207840074ED4A5695DB3B068C5
:1020D00000F00C00082840F0BD80012D28D0706869
:1020E000E16900F480028A4222D1216A00F03F02B5
:1020F0008A421DD147F6C071626A0140B1EB821F6E
:1021000016D1A26A0023CFF6FF7303EBC23200F4AC
:1021100040316FF30F0291420AD1E16A00F0706022
:10212000B0EB016F04D1002002B0BDE8F08100BF28
:10213000012002B0BDE8F0816069002840F2000093
:10214000C4F2472076D00121C0F8801EFEF7AAFF16
:10215000054600BF706F8007B4D4FEF7A3FF401B95
:102160000228F7D9DDE000BF306C10F080580AD1AA
:1021700000200190306C40F080503064306C00F0F2
:1021800080500190019847F20007C4F200073868B8
:10219000C00541D4386840F480703860FEF782FF93
:1021A000054600BF3868C00536D4FEF77BFF401BEC
:1021B0000228F7D9B5E000BFB06800F00C0008288D
:1021C00003D1706840023FF556AF6068B0F5803FBC
:1021D00007D0B0F5A02F40F08D80306840F480200B
:1021E0003060306840F4803030608DE0E068002876
:1021F00052D00020C4F2472001210160FEF752FFB7
:10220000054600BF306880073FF552AFFEF74AFF32
:10221000401B0228F6D984E0A068012805D00528D3
:102220004ED1306F40F004003067306F40F0010055
:1022300030674FE00021C0F8801EFEF733FF0546EF
:10224000706F80077FF53EAFFEF72CFF401B022822
:10225000F6D966E00027C4F2472700203866FEF76B
:1022600021FF022D05460BD1306880015ED5FEF7B7
:1022700019FF401B02284FF00300F5D954E700BFB7
:10228000306880017FF54FAFFEF70CFF401B02283E
:102290004FF00300F4D947E70020C4F247200021A3
:1022A0000160FEF7FFFE0546306880077FF507AF47
:1022B000FEF7F8FE401B02284FF00300F4D933E785
:1022C000316F002821F001013167316F21F00401E5
:1022D00031674DD0FEF7E6FE054641F2883700BF74
:1022E000306F800756D4FEF7DDFE401BB842F7D9A9
:1022F00017E000BF3168002821F480313160316877
:1023000021F4802131604FD0FEF7CCFE054600BF9E
:10231000306880033FF5B5AEFEF7C4FE401B64286D
:10232000F6D9032002B0BDE8F08100BF04F11C051E
:102330002FCD08430021CFF6FF7140EA821001EB58
:10234000C3316FF30F0140EA05600843706001205C
:102350003866FEF7A7FE0446306880013FF5E3AE1D
:10236000FEF7A0FE001B02284FF00300F4D9DBE6C5
:10237000FEF798FE054641F2883700BF306F8007B0
:1023800008D5FEF78FFE401BB8424FF00300F5D989
:10239000CAE600BFB8F1000F7FF497AE306C20F0B2
:1023A0008050306491E600BFFEF77CFE054600BF1A
:1023B000306880037FF565AEFEF774FE401B64282D
:1023C0004FF00300F4D9AFE6411E0020B0EB116FCF
:1023D0001CBF012070474EF21002CEF20002516085
:1023E0004EF62351CEF20001F0230B7007219060CE
:1023F00011607047FEE700002DE9F04184B040F223
:102400007008C2F20008044648F26B0008F11C058F
:10241000ADF80400642701AA2846D22102230097C0
:10242000FFF704FA6420FEF745FD2078217900F0DB
:10243000070040EA81106B218DF806108DF8070027
:102440000DF106022846D22102230097FFF7EEF98C
:102450006420FEF72FFDE0781A2100F007008DF8C8
:1024600008108DF8090002AA2846D22102230097FD
:10247000FFF7DCF96078182606EAC0001B218DF80A
:102480000A108DF80B000DF10A022846D221022312
:102490000097FFF7CBF9A0781C2106EAC0008DF861
:1024A0000C108DF80D0003AA2846D22102230097B4
:1024B000FFF7BCF940F21940ADF80E000DF10E0225
:1024C0002846D22102230097FFF7B0F9A07803280D
:1024D00006D9607803280BD904B0BDE8F08100BFAD
:1024E00007A151F82000C8F8080060780328F3D845
:1024F00007A151F82000C8F80C0004B0BDE8F08135
:1025000000007A3D0000FA3D00007A3E0000FA3EED
:102510000000FA3B00007A3C0000FA3C00007A3DE3
:102520002DE9F04385B040F27008054604A8C2F2D8
:102530000008461C3A2008F11C048DF80A004FF0F0
:102540000A090DF10A022046D2210123CDF800909C
:10255000FFF76CF964272046D22132460123009709
:10256000FEF762FE9DF81100002846D03B208DF852
:10257000040001AA2046D2210123CDF80090FFF7E4
:1025800055F90DF10A022046D22106230097FEF7E5
:102590004BFEBDF80A00BDF80C1000BA000C2880F4
:1025A00008BABDF80E10000C688008BA000CA880AC
:1025B00043208DF812000DF112022046D221012392
:1025C000CDF80090FFF732F901AA2046D221062368
:1025D0000097FEF729FEBDF80400BDF8061000BA0A
:1025E000000CA8F8000008BABDF80810000CA8F804
:1025F000020008BA000CA8F8040005B0BDE8F0839A
:1026000010B582B004466846FFF78AFFBDF90000A6
:10261000BDF90210BDF9042000EE100A40F270006E
:10262000C2F2000090ED021A02EE101A03EE102A18
:10263000B8EEC00AB8EEC22AB8EEC33A21EE000ADC
:1026400021EE022A21EE031A84ED000A84ED012A0C
:1026500084ED021A02B010BD80B5014640F2700050
:10266000C2F200001C305422FDF716FF80BD0000AE
:10267000FEE70000FEE70000704700007047000022
:10268000FFF746BB4EF68850CEF20000016841F4D9
:102690007001016070470000FEE700002DE9F04185
:1026A00084B040F60C0040F23814C0F60C00C2F2C0
:1026B000000402904FF0640802AA20464E21042331
:1026C000CDF80080FFF7B2F842F62D17C0F60D17CF
:1026D00003AD642620464E212A4604230397CDF8F5
:1026E0000080FFF7A3F8013EF4D104B0BDE8F0810B
:1026F00070B582B03220FEF7DDFB40F2381443F6AD
:102700003C06C2F20004C0F60C06642501AA20466D
:102710004E21042301960095FFF788F80520FEF767
:10272000C9FB01AA20464E21042301960095FFF71C
:102730007DF80120FEF7BEFB01AA20464E210423AE
:1027400001960095FFF772F80A20FEF7B3FB42F6F8
:102750002C00C0F60C00019001AA20464E21042353
:102760000095FFF763F80A20FEF7A4FB42F62C0061
:10277000C8F68C00019001AA20464E210423009542
:10278000FFF754F80120FEF795FB40F60C00C8F661
:102790008C00019001AA20464E2104230095FFF7EA
:1027A00045F80120FEF786FB40F60C00C1F61C0040
:1027B000019001AA20464E2104230095FFF736F828
:1027C0000120FEF777FB0120FEF774FB40F60C00BA
:1027D000C6F66C00019001AA20464E210423009504
:1027E000FFF724F80120FEF765FB40F60C00CCF65D
:1027F000CC00019001AA20464E2104230095FFF74A
:1028000015F802B070BD000080B582B000F0F00194
:10281000000101F10C0208318DF8051000F10C01E6
:1028200008308DF8070040F238108DF804208DF83C
:1028300006104FF0640CC2F2000001AA4E210423DE
:10284000CDF800C0FEF7F2FF02B080BDF0B583B056
:10285000017821B340F23814461E6427C2F2000406
:1028600002AD00BF21F00F00090100F10D02093097
:102870008DF8090001F10D008DF80A0001F1090041
:102880008DF808208DF80B0020464E212A4604239F
:102890000097FEF7CBFFB17801360029E2D103B0F3
:1028A000F0BD00000000000094B043F6300640F692
:1028B0000044C4F20206C4F20204FFF737FA08AD7E
:1028C000281D2C21FDF71AFE00270797CDE9057773
:1028D000CDE903770297306940F08050306130696C
:1028E00000F080500290029846F200400297CFF626
:1028F000FE70215841F480412150205800F480405E
:10290000029002980220089001200B9010200C9059
:1029100028460E97FFF79CFB20B1EFF3108072B6AC
:10292000FEE700BF0F20CDE9030703A80021CDE992
:1029300005770797FFF792FA20B1EFF3108072B690
:10294000FEE700BF00270C9703973068A4F54065A9
:1029500040F08000306030680C2100F0800003906F
:10296000039803973068002240F00100306030681F
:1029700000F00100039003980397306840F00800CE
:102980003060306800F008000390039803973068C7
:1029900040F00200306030680C2600F00200039026
:1029A00003982846FEF778FB20464FF47C4100222E
:1029B0004FF47C48FEF770FB089608AE4FF0010913
:1029C00028463146CDE909970B97FEF787FA20464E
:1029D0003146CDE90889CDE90A77FEF77FFA40F262
:1029E000381045F20041C2F20000C4F2000148F282
:1029F000A0624FF48043C0F2010280E88600C0E983
:102A00000373C0E90577C0E90777FEF751FB28B1EA
:102A1000EFF3108072B600BFFEE700BF40F238153A
:102A2000C2F200052846FFF717FE40F20110C0F27F
:102A30000100CDF8210008A88DF82070FFF7DCFC1C
:102A40002846FEF709FA2846FEF706FAC820FEF7E0
:102A500031FA3220FEF72EFAFFF74AFE3220FEF757
:102A600029FAFFF71BFE8020FFF7CEFE40F2E006BA
:102A7000C2F200069649304640F8201F94A10F1D6F
:102A80008CCF098AC0E90123C7600182FFF7DEFE0F
:102A900044F29E6944F2946846F2745B9FED889B11
:102AA0009FED89AB9FED8FBA9FED8FCA9FED8FDAB7
:102AB0009FED92EA9FED90FADFED8EBADFED8CCAC2
:102AC0004FF47A70C0F60009C0F600084FF0340ADF
:102AD000C7F2734BF1EE00DA1FE000BFB5EE401A0B
:102AE0000022F1EE10FAD8BF012220464FF4005127
:102AF000FEF7D2FA20464FF480510122FEF7CCFABD
:102B00000220FEF7D7F920464FF480510022FEF74D
:102B1000C3FA0220FEF7CEF90A20FEF7CBF90A200D
:102B2000FEF7C8F9FEF720F93070FEF745F970702E
:102B3000FEF76AF9B0700A20FEF7BCF9FEF7B2FAA8
:102B40007168401AB0F57A7F47D9FFF7A7FD80205A
:102B5000FFF75AFE70783378B77806F1200544F213
:102B60008462009028463221C0F600020197FDF7EA
:102B700003FC2846FFF76AFEC020FFF745FEF06819
:102B800001F054FC41EC100B284632214A468DEDF1
:102B9000000BFDF7F1FB2846FFF758FE9420FFF7E6
:102BA00033FEB06801F042FC41EC100B28463221A4
:102BB00042468DED000BFDF7DFFB2846FFF746FE92
:102BC000D420FFF721FE2846A6F824A0C6F820B09E
:102BD000FFF73CFEFEF766FA70600A20FEF76AF91E
:102BE00006F11400FFF70CFDD6E9060501F01EFC06
:102BF00041EC180B284601F019FC41EC110BB0EE2A
:102C0000480AF0EE680A00F0C7FD51EC100B53ECD7
:102C1000192B01F013FA53EC1A2B01F079F800F09C
:102C200091FF317800EE100AA1F10902062AB06086
:102C30000ED8B0EE4B2AB0EE4C3ADFE802F00F05AA
:102C40000D231D21090000BFB0EE4E3A06E000BF83
:102C5000B0EE4D2A16E000BFB0EE4F3AB5EE400A96
:102C600033EE401AF1EE10FA86ED033A86ED041ABF
:102C70001ADD002239E700BFB0EE6B2A02E000BF88
:102C8000B0EE6C2A01F0FC0032EE401A0C2886ED02
:102C9000032A86ED041A07D1B5EE400AF1EE10FAC8
:102CA00002DA012221E700BFB0EEC10AB4EE6D0ADC
:102CB000F1EE10FA4FF00A007FF72FAF0EE700BFDA
:102CC00000000000008066401F85EB51B81E0940DF
:102CD000566F6C7461676520556E62616C616E63DE
:102CE00065000000000023430AD701430000F0C242
:102CF0000000004300000E43000027C3000010C383
:102D00005FEA400C08BF91F0000F4FEA8C234FEAB6
:102D1000C12243EA51514FEA1C5018BF00F5F04060
:102D20004FEA300018BF41F000415FEA6C5C00F0F0
:102D30002980BCF1FF3F08BF40F080407047130C72
:102D400006BF12044FF0100C4FF0000C130E04BF1E
:102D500012020CF1080C130F04BF12010CF1040C49
:102D6000930F04BF92000CF1020CD30F04BF52006A
:102D70000CF1010C11464FF00002A0F11F00A0EB76
:102D80000C00704711F0004F08BF704731F0004150
:102D90003FF4D5AF0B0C06BF09044FF0100C4FF0F9
:102DA000000C0B0E04BF09020CF1080C0B0F04BF42
:102DB00009010CF1040C8B0F04BF89000CF1020C0B
:102DC000CB0F04BF49000CF1010CCCF1200322FA17
:102DD00003F341EA030102FA0CF2A0EB0C0000F14C
:102DE0000100704723F07F4720F07F4C80EA03000A
:102DF00000F00040ACEB070303F57C5303F1FF0345
:102E00002DE9804909B44FEA144324EA03484FEA04
:102E1000154B25EA0B4E0FF2042606EB13273E78DE
:102E200003FB0667C7F5000707FB06F64FEAD64621
:102E300006F102064FEA543707FB066CCCF1005C42
:102E40004FEA1C472CEA074C0CFB06F507FB06F47F
:102E500004EB15464FEA961649085FEA320234BF82
:102E600000204FF000404FEAD13706FB07FC4FEA45
:102E70001C4C0CFB0BF7D21B03FB0CF761EB07019F
:102E80000CFB0EF7B0EB074072EB17420CFB08F798
:102E900034BFA2EB0742B2EB074261EB17414FEAA6
:102EA0000C444FEA910706FB07FC4FEA1C4C0CFB55
:102EB0000BF7B0EBC74072EB573203FB0CF734BF94
:102EC000A2EBC742B2EBC74261EB57310CFB0EF7E6
:102ED000B0EBC70072EB57720CFB08F734BFA2EBE4
:102EE000C702B2EBC70261EB57714FEA816141EA59
:102EF00092114FEA826242EA90124FEA806004EB3C
:102F0000CC04039F4FEAD13706FB07FC4FEA1C4C69
:102F10000CFB0BF7D21B03FB0CF761EB07010CFB5F
:102F20000EF7B0EB074072EB17420CFB08F734BF0B
:102F3000A2EB0742B2EB074261EB17414FEA8C5517
:102F400004EB9C244FEA910706FB07FC4FEA1C4C5C
:102F50000CFB0BF7B0EBC74072EB573203FB0CF7DF
:102F600034BFA2EBC742B2EBC74261EB57310CFB57
:102F70000EF7B0EBC70072EB57720CFB08F734BFCB
:102F8000A2EBC702B2EBC70261EB57714FEA816156
:102F900041EA92114FEA826242EA90124FEA80605F
:102FA00015EB4C2544F100044FEAD13706FB07FC32
:102FB0004FEA1C4C0CFB0BF7D21B03FB0CF761EB2D
:102FC00007010CFB0EF7B0EB074072EB17420CFB4E
:102FD00008F734BFA2EB0742B2EB074261EB17419F
:102FE0004FEA813141EA92414FEA823242EA90420D
:102FF0004FEA80304FEA0C7615EB1C1544F10004C3
:1030000048EA03434EEA0B484FF0000EB2EB080CBF
:1030100071EB030724BF624639464EEB0E0E4FF0AC
:10302000000B0018524149414BEB0B0BB2EB080C63
:1030300071EB03077BF1000B24BF624639464EEB70
:103040000E0E4FF0000B0018524149414BEB0B0B99
:10305000B2EB080C71EB03077BF1000B24BF624657
:1030600039464EEB0E0E51EA020718BF46F0010634
:1030700016EB0E7655F1000254F1000103D5BDE8C0
:103080008901BDE80088BDE88901BDE80048B6199E
:10309000524141EB0101A3F10103704780807F7E23
:1030A0007D7C7B7A797877767675747372717170BE
:1030B0006F6E6E6D6C6C6B6A6A6968686766666570
:1030C0006464636362616160605F5F5E5E5D5D5CFE
:1030D0005C5B5B5A5A59595858575756565555556F
:1030E0005454535352525251515050504F4F4F4ECF
:1030F0004E4D4D4D4C4C4C4B4B4B4A4A4A4949491D
:10310000484848474747474646464545454444445E
:103110004443434343424242424141419C46002B87
:1031200030D477002BD04FEA37071CB503B44FF0EB
:1031300010004FF01001BAF1000F06D0BCF1000FE3
:10314000DCBF40F0080040F008014FF000000FBC69
:10315000BDE810400BF1010BBBF1010F08BF5FEAA6
:10316000170722BF12F1010211F101014FF00041D6
:1031700043F1000300F0004043EA00007047F9D338
:103180005708D0E746EA06464FEA164613F1400FC5
:103190001FDD13F1200FDFBF16430A460021203345
:1031A0005B42BED0C3F1200746EA06464FEA164608
:1031B00002FA07F746EA070622FA03F2C3F12007EC
:1031C00001FA07F742EA070221FA03F14FF0000380
:1031D000A7E746EA020646EA06464FEA164646EAE8
:1031E0000106BCBF46EA0646360C4FF000034FF01E
:1031F00000024FF0000194E72DE9804C70B49A462C
:10320000934691E8380007C831EA400C48BF34EAD9
:10321000430C03D5FFF7E6FDFFF780FFF0BCBDE8E8
:10322000008C2DE9804C70B49A46934691E83800A2
:1032300007C810F0804F08BF13F0804F03D100F093
:1032400005F8FFF76BFFF0BCBDE8008C20F07F476E
:1032500023F07F4C80EA030000F0004007EB0C03F2
:10326000A3F57C53A3F1FE0392F0000F00F0B380AE
:1032700095F0000F00F077802DE901494FEA1140E9
:1032800021EA00484FEA144624EA064700FB06FC00
:1032900008FB06F607FB08F818EB06484CEB164C43
:1032A00000FB07F718EB07484CEB17404FEA124BAF
:1032B00022EA0B4E4FEA154625EA06470BFB06FCB1
:1032C0000EFB06F607FB0EFE1EEB064E4CEB164CF5
:1032D0000BFB07F71EEB074E4CEB174B18EB0B08DD
:1032E00040F1000018EB0E0B58EB000840F1000015
:1032F0008F1A4FF000014FF000063CBFC943661B18
:1033000014BFB5EB040C00213CBFC943F61B4FEAC8
:10331000174427EA04454FEA1C472CEA074C04FBF4
:10332000076205FB07F70CFB05F616EB074642EBB9
:10333000174204FB0CFC16EB0C4642EB1C421BEB49
:10334000060658EB020241414EEA8E0E46EA9E0600
:1033500001D5BDE80189B619524141EB0101A3F144
:103360000103BDE801894FEA144524EA05464FEA06
:10337000114721EA074C05FB07F406FB07F70CFB96
:1033800006F111EB074144EB174405FB0CFC11EB74
:103390000C4144EB1C444FEA124722EA074C05FB60
:1033A00007F206FB07F70CFB06F616EB074642EBA7
:1033B000174205FB0CFC16EB0C4642EB1C456A1849
:1033C00054F1000148BF7047B619524141EB010169
:1033D000A3F10103704795F0000F37D04FEA114277
:1033E00021EA02464FEA144724EA074C02FB07F1A0
:1033F00006FB07F70CFB06F414EB074441EB1741FF
:1034000002FB0CFC14EB0C4441EB1C414FEA15474A
:1034100025EA074C02FB07F506FB07F70CFB06F64F
:1034200016EB074645EB174502FB0CFC16EB0C466A
:1034300045EB1C42121951F1000148BF7047B61903
:10344000524141EB0101A3F1010370474FEA1445DA
:1034500024EA05464FEA114721EA074C05FB07F12C
:1034600006FB07F70CFB06F212EB074241EB174194
:1034700005FB0CFC12EB0C4251EB1C414FF000061B
:1034800048BF7047921841EB0101A3F10103704757
:1034900003B401984100009850EAC12018BF0420ED
:1034A0004A0D18BF40F0010040F2FF72B2EB515FCD
:1034B00008BF40F00200012808BF052002B0704795
:1034C00070B59B482DED020B2DED068B079D25F069
:1034D0000044A04218DC9748844202DC0AD10698D6
:1034E00040B19DED060BBDEC068B02B0BDE870400F
:1034F00000F0CEBA002DCCBF9FED8F0B9FED900B4F
:10350000BDEC068B02B070BD8F48A04215DD8F4820
:10351000A042D8BF4FF0FF3458DD9DED060B51ECB3
:10352000100BFFF7B5FF042808BF00F0C5FA9DEDAA
:10353000060BBDEC068B02B070BD9DED060B51EC89
:10354000100B00F0D1FACDE9060181489FED828B86
:10355000A0423CDD8248A0421FDD00249FED82ABEB
:103560009DED060B53EC1A2B51EC100B00F01CFBDD
:103570009DED060B41EC190B53EC1A2B51EC100B83
:1035800000F05CFD53EC182B00F062FE53EC192B9D
:1035900000F0BEFBCDE9060149E09DED060B0124DC
:1035A00053EC182B51EC100B00F0FEFA9DED060BBE
:1035B00041EC190B53EC182B51EC100B00F048FEAA
:1035C00053EC192B00F0A4FBCDE906012FE068486D
:1035D000A0421FDD02249FED689B9DED060B53EC7E
:1035E000192B51EC100B00F029FD53EC182B00F0B7
:1035F000DBFA9DED060B41EC180B53EC192B51EC4B
:10360000100B00F025FE53EC182B00F081FBCDE9E8
:1036100006010CE09DED060B032453EC102B9FEDEF
:10362000580B51EC100B00F073FBCDE906019DED3A
:10363000060B53EC102B51EC100B00F0FFFC41EC8F
:10364000180B53EC182B00F0F9FC41EC190B4E4809
:103650000621B0EE490AF0EE690A784400F09CF9C0
:1036600053EC182B51EC100B00F0E8FC41EC180B5C
:103670004648B0EE490AF0EE690A0521784400F0A8
:103680008BF953EC192B51EC100B00F0D7FC41ECEB
:10369000100B51EC180B53EC102B002C0EDA00F031
:1036A00083FA9DED061B53EC112B00F0C7FC9DED3A
:1036B000061B53EC112B00F0BFFD35E000F074FA4F
:1036C0009DED061B53EC112B00F0B8FC41EC100BE8
:1036D0002F48784400EBC40090ED001B51EC100B18
:1036E00053EC112B00F0B4FD9DED061B53EC112B98
:1036F00000F0AEFD41EC100B2648784400EBC4000E
:1037000090ED001B51EC100B53EC112B00F094FDCD
:1037100041EC100B002DA2BFBDEC068B02B070BDBA
:1037200051EC100B00F002FA41EC100B01E7000025
:10373000000010440000F07F182D4454FB21F93F95
:10374000182D4454FB21F9BF0000DC3F0000203E4F
:103750000000F33F00000000000000000000F03F08
:103760000000E63F000000000000000000000040F4
:103770000080034000000000000000000000F83F4F
:10378000000000000000F0BF420F0000F80E000033
:10379000820E00003A0E000070B56F4E2DED040B46
:1037A0002DED048B82B0DDF824C0DDE907235C42F7
:1037B0002CF000411C4341EAD474069D22F00040E5
:1037C000B44205D86C422C4340EAD474B4420BD9BD
:1037D0009DED081B9DED060B02B0BDEC048B04B003
:1037E000BDE8704000F05EB9ACF14054A4F17F64D4
:1037F0001C430BD0022404EAAC7444EAD27405439F
:103800009FED578B9FED582B07D015E09DED060BD4
:1038100051EC100B00F060F942E0002C11BF012CBC
:103820009DED060B02B0BDEC048B04BF04B070BD6F
:10383000022C38D0032C3BD00B439FED4D1B9FED4A
:103840004E0B0AD0B14218D1B04209D121F08041CB
:1038500020F08040099107900FE0002A15DA10E06F
:10386000474B7B44002C08BF93ED000B0DD0012C7F
:1038700010D0022C17D0032C1AD0B0421DD1002A30
:1038800003DAB0EE410AF0EE610A02B0BDEC048B3F
:1038900004B070BD93ED000B51EC100B00F046F935
:1038A00041EC100BF1E7B0EE480AF0EE680AECE7E5
:1038B000B0EE420AF0EE620AE7E7401A00159FED0B
:1038C000329B3C28C8BF8DED000B17DCBCF1000F0C
:1038D000BCBF10F13C0F8DED009B0FDB9DED080B85
:1038E00053EC102B9DED060B51EC100B00F010FA71
:1038F00000F0FAF800F0F0F8CDE90001B4B1012CC5
:1039000010D0022C9FED220B53EC102B9DED000BE1
:1039100051EC100B19D000F09BFC53EC182B00F06D
:1039200097FCBDE7019880F0004001909DED000BF1
:1039300053EC192B51EC100B00F044FB04BF022098
:10394000FCF70BFE9DED000B9FE700F081FC53ECB4
:10395000182B00F071FCA3E70000F07F00000000CE
:10396000182D4454FB210940182D4454FB2109C053
:10397000182D4454FB21F9BF182D4454FB21F93F65
:103980006A0D0000000000000000000000000000C0
:10399000075C143326A6A13C70B504462DED028BBE
:1039A0004D1E00EBC500B0EE408AF0EE608A90ED4F
:1039B000000B35F0060017D053EC182B51EC100B10
:1039C00000F03CFB41EC100B6D1E04EBC50090EDCC
:1039D000001B51EC100B53EC112B00F0E5F841ECFF
:1039E000100B35F00600E7D1022D36D0042D1CD087
:1039F000062D1CBFBDEC028B70BD53EC182B51EC97
:103A0000100B00F01BFB94ED0A1B53EC112B00F084
:103A1000CBF853EC182B00F011FB94ED081B53EC82
:103A2000112B00F0C1F841EC100B53EC182B51ECAA
:103A3000100B00F003FB94ED061B53EC112B00F070
:103A4000B3F853EC182B00F0F9FA94ED040B53EC97
:103A5000102B00F0A9F841EC100B53EC182B51EC93
:103A6000100B00F0EBFA94ED021B53EC112B00F05D
:103A70009BF853EC182B00F0E1FA94ED001B53EC8B
:103A8000112B00F091F8BDEC028B41EC100B70BDD6
:103A900010B553EC102B51EC100B00F085F841ECF5
:103AA000100B10BD10B553EC112B51EC100B00F0A6
:103AB0007BF841EC100B10BD9FED050B10B553ECDE
:103AC000102B51EC100B00F0B9FA41EC100B10BDAB
:103AD000000000000000001010B541EC100BFFF7D3
:103AE000EFFC51EC100B10BD82B0CDE9000121F0CC
:103AF000004001909DED000B02B051EC100B70479F
:103B000010B500290AD00878002807D00548784465
:103B1000FDF7E2F8002801D0002010BD02487844EB
:103B200010BD0000C20B0000BA0B000081F0004184
:103B3000704780F00040704721F00041704720F04E
:103B40000040704721F0004201F00043A2F16052B2
:103B5000B2F5801F28BFD2F17F6C0BD95FEA001C41
:103B600043EAC20242EB507018BF704728BF20F0F2
:103B700001007047B2F5801FBCBF184670474FEA7E
:103B8000410C1CF5001F02D2084600F0CDBC70B5F8
:103B900000F0FEFA00000089FFF7F6BF4FF000408A
:103BA000A0F580007047000010B591EA030F48BFF0
:103BB00083F0004300F15483841A71EB030C05D2A7
:103BC000121943EB0C03001B61EB0C014FEA11547B
:103BD000A4EB135CDFF81CE11EEA430F18BF9EEA5A
:103BE000445F00F0748021EA045123EA0E0343F499
:103BF0008013DCF1200E32D322FA0CFE10EB0E0003
:103C000023FA0CFE41EB0E01CCF1200E03FA0EFE5E
:103C100010EB0E00CCF1200E51F10001B1F5801F28
:103C200032D201EB045112FA0EF2BDE8104058BF37
:103C30007047401C38BF5FEA420218BF7047002837
:103C400014BF20F0010041F100014FEA410313F5D8
:103C5000001F38BF7047A1F1C04100F0E7BA012A48
:103C600043EB0302ACF1200CDCF11F0E32BF4FF02E
:103C7000000E23FA0CF310EB030041EB0451B4EBFC
:103C8000115FD0D0A1EB045101F58011490801EB7F
:103C900004515FEA30000ED350F1000038BF12FA31
:103CA0000EFE08D1BDE81040C9E7401C38BF5FEAEE
:103CB0004202CAD1C3E7BDE810404FEA410313F501
:103CC000001F38BF7047A1F1C04100F0AFBA9EEAB3
:103CD000445F08D011EA5E0FBDE8104004BF01F058
:103CE000004100207047BDE8104070B500F050FA68
:103CF00064FBBE3E0000E0FF491058BFC1F14041E7
:103D00005B1058BFC3F140438B42EFF30080704714
:103D10002DE9C04130B4DFF8A4C23CEA111418BF49
:103D20003CEA131400F0ED801CEA111481EA03054B
:103D300044EAD57418BF1CEA131500F0C880A4EB40
:103D4000050404F17F7404F500344FF0004545EAA2
:103D5000C12145EAC32341EA505143EA52534FEA95
:103D6000C0204FEAC222994208BF904200F09D80D5
:103D70004FEA13650FF24416765D4FEA134506FBD2
:103D800005F7C7F1807706FB07F74FEAD737A7FBA0
:103D900003687642A7FB06CEC8F5803838BFA8F185
:103DA000010807FB08E6A6FB028C4FF0000EE6FBBD
:103DB00003CEDCF1000CCEF1004E38BFAEF1010EA7
:103DC000A6FB0C584FF00007E6FB0E87A1FB08C6C8
:103DD000A0FB07CE16EB0E064FF0000545F10005DF
:103DE000E1FB076515F1E04E7EBFA4F580345FEA84
:103DF00046066D4116F1800745F100054FEA172789
:103E000047EA05674FEA15254FEA0666A6F1DE4642
:103E1000B6F1805F20D9384605EBC47124F0010C5F
:103E200001EB0C11BCF1FE6F02D8F0BCBDE80081C3
:103E300024425CBF01F5801E9EEAC47F02D4F0BC20
:103E4000BDE80081244200F13980A1F1C041F0BCFD
:103E5000BDE8004100F0EAB94FEAD02040EA415005
:103E60004FEAD1214FEAD22242EA43524FEAD3230A
:103E7000A7FB028607FB036605FB02661EEA0E0F20
:103E800058BFA6EB0056B6EB00564FEA520E4EEA6C
:103E9000C37E18EB0E0E56EB530EBCD518EB020882
:103EA0005E417F1C55F10005B5E74FF480154FF0DA
:103EB00000074FF000064FF00008ACE701F1C041E9
:103EC00001F000414FF00000F0BCBDE800810CEAB9
:103ED000131511EA0C1F00D00CE013EA0C1F00F0C0
:103EE00026804FF0000081EA030101F00041F0BCA0
:103EF000BDE80081F0BCBDE8004181EA030100F0AB
:103F000095B9F0BCBDE8004170B500F041F900BFC3
:103F1000097EFC3E00F007B84FF0000081EA030183
:103F200001F00041704781EA030100F07FB9F0BC65
:103F3000BDE8004122494FF000007047FFFDFBF94A
:103F4000F7F5F4F2F0EEEDEBE9E8E6E4E3E1E0DECC
:103F5000DDDBDAD8D7D5D4D3D1D0CFCDCCCBCAC83E
:103F6000C7C6C5C4C2C1C0BFBEBDBCBBBAB9B8B765
:103F7000B6B5B4B3B2B1B0AFAEADACABAAA9A8A858
:103F8000A7A6A5A4A3A3A2A1A09F9F9E9D9C9C9B26
:103F90009A999998979796959594939392919190D1
:103FA0008F8F8E8E8D8C8C8B8B8A89898888878762
:103FB0008685858484838382828181800000FF07D7
:103FC0000000F87F51EA030C17D41CF5801F58BF7E
:103FD000BCF5801F00F10680994218BF704708BFEA
:103FE0009042704707D711F5801F58BF13F5801F07
:103FF00019D499427047894270471CF5801F08D533
:10400000BCF5801FF7D58B4218BF704708BF8242AE
:1040100070474FF4001C1CEB410F38BF1CEB430FE3
:1040200001D28B42704770B500F0B2F8922449007B
:104030004FF000514FF08053FFF75EBE70B5DFF8D0
:1040400048C11CEA111E1EBF1CEA13159EEA0C0F84
:1040500095EA0C0F00F06F8081EA03044EEAD47EEB
:10406000AE4421EA4C1123EA4C1341F4801143F48D
:104070008013AEF17F7EA1FB024CA0FB03653619D5
:1040800055EB0C05A1FB034C4CF10003A0FB021CFB
:1040900016EB0C06654153F10003094218BF46F0C8
:1040A000010613F4007F0BD14FEA03314FEA0530CC
:1040B00041EA155140EA165034036FF003020AE05A
:1040C0004FEAC3214FEAC52041EA555140EA565014
:1040D000F4026FF0020202EB2E4201EB025585EA78
:1040E000CE710AD05FEA440C18BF24F0004450F1AE
:1040F000000041F1000120EAD47040F2FE7C6245EC
:1041000000D270BDA84214BF4FF080444FF040442D
:10411000002E08BF0024BEF1806FA8BFA1F1C041EE
:10412000BDE8704080F2828001F1C04101F00041A1
:104130004FF0000070470CEA13159EEA0C0F18BFF1
:1041400095EA0C0F06D081EA030E4FF000000EF046
:10415000004170BD00F01CF88900013E00F007B876
:1041600000F009B84FEA430C5FEA5C5C08D081EAD2
:10417000030100F05BB84FEA410C5FEA5C5CF6D1EA
:1041800002494FF0000070470000FF070000F87F71
:104190000EF1020E2EF0030E5EF8046B364205D4CB
:1041A000012A43EB030515F5001F12D8012841EB46
:1041B000010C1CF5001F0CD80ED14FEAD17C0CEB82
:1041C0004C0C0CF1020C15F5001F08BF4CEBD37C16
:1041D00004E04FF0080C01E04FEAD37C0CEB4C05F7
:1041E00026FA05F606F00706B6F1040C06D20EEB29
:1041F000860CBDE870404CF0010C6047DFE80CF025
:10420000090B02024FF00041A1F500214FF0000020
:1042100070BD19461046012851EB010418BFD4F5B2
:10422000001484BF002001F0004170BD0808A0F513
:1042300000114FEA3101704710B591EA030F81F088
:1042400000413FF5B9AC83F0004300F009B800002D
:1042500010B591EA030F48BF83F000433FF5ACACC3
:10426000841A71EB030C07D28CF0004C121943EB4B
:104270000C03001B61EB0C014FEA1154A4EB135C1F
:10428000DFF8A4E11EEA430F18BF9EEA445F00F086
:10429000B48021EA045123EA6E035242C3EB6E0359
:1042A00038BF5B1EDCF1200E25D322FA0CFE10EB8A
:1042B0000E0043FA0CFE41EB0E01CCF1200E03FA86
:1042C0000EFE10EB0E00CCF1200E51F1000129D4AE
:1042D00001EB045112FA0EF2BDE8104058BF7047CE
:1042E000401C1CBFB2F1004F704700280CBF491C96
:1042F00020F00100704712EB020E43EB030218BFDF
:104300004FF0010E4EEA4202ACF1200CDCF11E0E21
:1043100056D943FA0CFE10EB0E00CCF11E0E51F1F3
:10432000FF31D5D50EF1010E12FA0EFE404141EBE0
:10433000010101EB445C5FEA5C5C10D901EB0451C4
:1043400010EBDE7038BFBEF1004FBDE8104018BF63
:10435000704700280CBF491C20F00100704734D280
:104360004FEAD42C24F4006411F500111BD0B1FAEB
:1043700081F20B3AA41AA41ED2F12003914030FA24
:1043800003F31943904001EBCC7101EB0451002C75
:10439000BDE81040A8BF704701F1C04101F00041E5
:1043A0004FF000007047B0FA80F310FA03F102D129
:1043B000BDE810407047E41A173C4805C90AE2E717
:1043C00001EB0451BDE81040704749104FEA30003E
:1043D00001EB0451BDE8104002E04FF000017047CE
:1043E0004A0008BF0042F8D0B2F5001F28BF70474E
:1043F00001F000414FF0000070479EEA445F07D093
:1044000011EA5E0FBDE8104004BF00210020704794
:10441000BDE8104070B5FFF7BBFE00BF40DFF63EC1
:10442000104683F0004170470000E0FF43004FEA70
:10443000D30C4FEA3C0C43401FBF40070CF16051C6
:1044400013F0FE4F70471CF0006F03D10CF00041D9
:10445000002070470CF0004343EA507040EACC0063
:1044600010B500F00EF800BF000000924FEA000106
:10447000FFF7DCBE4FF00041A1F500214FF0000036
:1044800070470EF1020E2EF0030E5EF8044B24422C
:1044900004D44FEA4102B2F17F4F11D84FEA4003F2
:1044A000B3F17F4F0CD80ED14FEAD07C0CEB4C0C03
:1044B0000CF1020CB2F17F4F08BF4CEBD17C04E051
:1044C0004FF0080C01E04FEAD17C0CEB4C0324FACE
:1044D00003F404F00704B4F1040C06D20EEB840CD0
:1044E000BDE810404CF0010C6047DFE80CF0070815
:1044F00002024FF00040A0F5800010BD08464200C7
:1045000018BFD2F1807288BF00F0004010BDF1EEFC
:10451000100A4FF6FF71C0F2C03120EA010040F0EE
:104520004070E1EE100A7047FF2141EAD050C0050B
:104530007047FCF749B900004FBB610567ACDD3F30
:10454000182D4454FB21E93F9BF681D20B73EF3FBA
:10455000182D4454FB21F93FE2652F227F2B7A3C32
:10456000075C143326A6813CBDCBF07A8807703CEB
:10457000075C143326A6913CC4EB98999999C9BF5E
:10458000711623FEC671BCBF6D9A74AFF2B0B3BF93
:104590009AFDDE522DDEADBF2F6C6A2C44B4A2BF53
:1045A0000D5555555555D53FFF8300922449C23FBF
:1045B0006E204CC5CD45B73F513DD0A0660DB13FF3
:1045C000EB0D76244B7BA93F11DA22E33AAD903F05
:1045D000000000000000000002400000000000A0F9
:1045E0000000000005400000000000C800000000BE
:1045F0000C4000000000409C00000000194000003A
:104600000020BCBE0000000034400000BFC91B8E6B
:1046100000000004B5400000504BCFD06607E2CF49
:10462000010000006C4100003E8251AADFEEA73479
:1046300001000000D9420000DCB5A0E23A301F972B
:10464000FFFFFFFFB4450000FD25A0C8E9A3C14F4F
:10465000FFFFFFFFFF3F00000000008000000000A0
:10466000FF3F00000000008000000000000000008C
:104670000000000001020304060708090000000012
:104680000102030477616B74753A2025643A25644E
:104690003A25640073756475743A20256600737555
:1046A00064757420746172676567743A25660000EA
:1046B000F04600080000002010000000C4010008BF
:1046C000004700081000002080070000E0010008FB
:1046D0001C00000043000000F8FFFFFF0C0000007A
:1046E0000E0000000F0000002E000000000000007F
:1046F00001000000100000000024F4000000000091
:040000050800018965
:00000001FF
